{
  "contractName": "StoreYourPet",
  "abi": [
    {
      "inputs": [
        {
          "internalType": "address",
          "name": "",
          "type": "address"
        }
      ],
      "name": "ownerPetCount",
      "outputs": [
        {
          "internalType": "string",
          "name": "name",
          "type": "string"
        },
        {
          "internalType": "uint256",
          "name": "age",
          "type": "uint256"
        },
        {
          "internalType": "string",
          "name": "color",
          "type": "string"
        }
      ],
      "stateMutability": "view",
      "type": "function",
      "constant": true
    },
    {
      "inputs": [],
      "name": "pet",
      "outputs": [
        {
          "internalType": "string",
          "name": "name",
          "type": "string"
        },
        {
          "internalType": "uint256",
          "name": "age",
          "type": "uint256"
        },
        {
          "internalType": "string",
          "name": "color",
          "type": "string"
        }
      ],
      "stateMutability": "view",
      "type": "function",
      "constant": true
    },
    {
      "inputs": [],
      "name": "totalPets",
      "outputs": [
        {
          "internalType": "uint256",
          "name": "",
          "type": "uint256"
        }
      ],
      "stateMutability": "view",
      "type": "function",
      "constant": true
    },
    {
      "inputs": [
        {
          "internalType": "string",
          "name": "_name",
          "type": "string"
        },
        {
          "internalType": "uint256",
          "name": "_age",
          "type": "uint256"
        },
        {
          "internalType": "string",
          "name": "_color",
          "type": "string"
        }
      ],
      "name": "addPet",
      "outputs": [],
      "stateMutability": "nonpayable",
      "type": "function"
    }
  ],
  "bytecode": "0x608060405234801561001057600080fd5b50610a31806100206000396000f3fe608060405234801561001057600080fd5b506004361061004c5760003560e01c806322b53b4114610051578063987eae8f1461006d578063bd06b5521461008b578063e9b7d7dd146100bd575b600080fd5b61006b60048036038101906100669190610715565b6100dd565b005b61007561027a565b60405161008291906107af565b60405180910390f35b6100a560048036038101906100a09190610828565b610280565b6040516100b4939291906108dd565b60405180910390f35b6100c56103ba565b6040516100d4939291906108dd565b60405180910390f35b6000808154809291906100ef90610951565b91905055506004604051806060016040528085815260200184815260200183815250908060018154018082558091505060019003906000526020600020906003020160009091909190915060008201518160000190805190602001906101569291906104e2565b5060208201518160010155604082015181600201908051906020019061017d9291906104e2565b50505082600560003373ffffffffffffffffffffffffffffffffffffffff1673ffffffffffffffffffffffffffffffffffffffff16815260200190815260200160002060000190805190602001906101d69291906104e2565b5081600560003373ffffffffffffffffffffffffffffffffffffffff1673ffffffffffffffffffffffffffffffffffffffff1681526020019081526020016000206001018190555080600560003373ffffffffffffffffffffffffffffffffffffffff1673ffffffffffffffffffffffffffffffffffffffff16815260200190815260200160002060020190805190602001906102749291906104e2565b50505050565b60005481565b60056020528060005260406000206000915090508060000180546102a3906109c9565b80601f01602080910402602001604051908101604052809291908181526020018280546102cf906109c9565b801561031c5780601f106102f15761010080835404028352916020019161031c565b820191906000526020600020905b8154815290600101906020018083116102ff57829003601f168201915b505050505090806001015490806002018054610337906109c9565b80601f0160208091040260200160405190810160405280929190818152602001828054610363906109c9565b80156103b05780601f10610385576101008083540402835291602001916103b0565b820191906000526020600020905b81548152906001019060200180831161039357829003601f168201915b5050505050905083565b60018060000180546103cb906109c9565b80601f01602080910402602001604051908101604052809291908181526020018280546103f7906109c9565b80156104445780601f1061041957610100808354040283529160200191610444565b820191906000526020600020905b81548152906001019060200180831161042757829003601f168201915b50505050509080600101549080600201805461045f906109c9565b80601f016020809104026020016040519081016040528092919081815260200182805461048b906109c9565b80156104d85780601f106104ad576101008083540402835291602001916104d8565b820191906000526020600020905b8154815290600101906020018083116104bb57829003601f168201915b5050505050905083565b8280546104ee906109c9565b90600052602060002090601f0160209004810192826105105760008555610557565b82601f1061052957805160ff1916838001178555610557565b82800160010185558215610557579182015b8281111561055657825182559160200191906001019061053b565b5b5090506105649190610568565b5090565b5b80821115610581576000816000905550600101610569565b5090565b6000604051905090565b600080fd5b600080fd5b600080fd5b600080fd5b6000601f19601f8301169050919050565b7f4e487b7100000000000000000000000000000000000000000000000000000000600052604160045260246000fd5b6105ec826105a3565b810181811067ffffffffffffffff8211171561060b5761060a6105b4565b5b80604052505050565b600061061e610585565b905061062a82826105e3565b919050565b600067ffffffffffffffff82111561064a576106496105b4565b5b610653826105a3565b9050602081019050919050565b82818337600083830152505050565b600061068261067d8461062f565b610614565b90508281526020810184848401111561069e5761069d61059e565b5b6106a9848285610660565b509392505050565b600082601f8301126106c6576106c5610599565b5b81356106d684826020860161066f565b91505092915050565b6000819050919050565b6106f2816106df565b81146106fd57600080fd5b50565b60008135905061070f816106e9565b92915050565b60008060006060848603121561072e5761072d61058f565b5b600084013567ffffffffffffffff81111561074c5761074b610594565b5b610758868287016106b1565b935050602061076986828701610700565b925050604084013567ffffffffffffffff81111561078a57610789610594565b5b610796868287016106b1565b9150509250925092565b6107a9816106df565b82525050565b60006020820190506107c460008301846107a0565b92915050565b600073ffffffffffffffffffffffffffffffffffffffff82169050919050565b60006107f5826107ca565b9050919050565b610805816107ea565b811461081057600080fd5b50565b600081359050610822816107fc565b92915050565b60006020828403121561083e5761083d61058f565b5b600061084c84828501610813565b91505092915050565b600081519050919050565b600082825260208201905092915050565b60005b8381101561088f578082015181840152602081019050610874565b8381111561089e576000848401525b50505050565b60006108af82610855565b6108b98185610860565b93506108c9818560208601610871565b6108d2816105a3565b840191505092915050565b600060608201905081810360008301526108f781866108a4565b905061090660208301856107a0565b818103604083015261091881846108a4565b9050949350505050565b7f4e487b7100000000000000000000000000000000000000000000000000000000600052601160045260246000fd5b600061095c826106df565b91507fffffffffffffffffffffffffffffffffffffffffffffffffffffffffffffffff82141561098f5761098e610922565b5b600182019050919050565b7f4e487b7100000000000000000000000000000000000000000000000000000000600052602260045260246000fd5b600060028204905060018216806109e157607f821691505b602082108114156109f5576109f461099a565b5b5091905056fea2646970667358221220fb2eb1176142be6fbec3302b7d950bcb07069dc3326cb64b01d58dad9ccfb1e664736f6c634300080b0033",
  "immutableReferences": {},
  "source": "// SPDX-License-Identifier: GPL-3.0\r\n\r\npragma solidity ^0.8.11;\r\n\r\ncontract StoreYourPet {\r\n    \r\n    uint public totalPets;\r\n    struct Pet {\r\n        string name;\r\n        uint age;\r\n        string color;\r\n    }\r\n\r\n    Pet public pet;\r\n    Pet[] pets;\r\n\r\n    mapping(address => Pet) public ownerPetCount;\r\n\r\n    function addPet(string memory _name, uint _age, string memory _color) public {\r\n        totalPets++;\r\n        pets.push(Pet(_name, _age, _color));\r\n        ownerPetCount[msg.sender].name = _name;\r\n        ownerPetCount[msg.sender].age = _age;\r\n        ownerPetCount[msg.sender].color = _color;\r\n    }\r\n}",
  "sourcePath": "C:\\Users\\Juan Cruz\\Desktop\\proyectos solidity\\dApp-Demo\\blockchain\\contracts\\contracts\\StoreYourPet.sol",
  "compiler": {
    "name": "solc",
    "version": "0.8.11+commit.d7f03943.Emscripten.clang"
  },
  "schemaVersion": "3.4.4",
  "updatedAt": "2022-01-20T16:37:48.722Z",
  "networkType": "ethereum",
  "devdoc": {
    "kind": "dev",
    "methods": {},
    "version": 1
  },
  "userdoc": {
    "kind": "user",
    "methods": {},
    "version": 1
  }
}